:1004380053B3FE43B40143B11053B2EF308104D239
:10044800908002C2907F647E007D007C001201E2F1
:0204580080EA38
:1002F4009000001200F5538EF7438901D28CE4FF7D
:10030400FEFDFC900000E0F8A3E0F9A3E0FAA3E00E
:10031400FBC31200D1602F758A7E758CFF308DFD72
:10032400C28D900000E0FCA3E0FDA3E0FEA3E02466
:10033400FFFFEE34FFFEED34FFFDEC34FFFC9000D4
:09034400001200F580B8C28C2201
:10034D009000041200F5538EF7438901D28CE4FF1F
:10035D00FEFDFC900004E0F8A3E0F9A3E0FAA3E0B1
:10036D00FBC31200D1602F758ACA758CFA308DFDD2
:10037D00C28D900004E0FCA3E0FDA3E0FEA3E02409
:10038D00FFFFEE34FFFEED34FFFDEC34FFFC90007B
:09039D00041200F580B8C28C22A4
:1003A6009000081200F5538EEF438910D28EE4FFB9
:1003B600FEFDFC900008E0F8A3E0F9A3E0FAA3E054
:1003C600FBC31200D1602F758BEA758DCB308FFD84
:1003D600C28F900008E0FCA3E0FDA3E0FEA3E024AA
:1003E600FFFFEE34FFFEED34FFFDEC34FFFC900022
:0903F600081200F580B8C28E2245
:1001E20090001C1200F553C9BF53C9DF43C910D296
:1001F200CAE4FFFEFDFC90001CE0F8A3E0F9A3E0D6
:10020200FAA3E0FBC31200D1602F75CC3075CDF894
:1002120030CFFDC2CF90001CE0FCA3E0FDA3E0FEC6
:10022200A3E024FFFFEE34FFFEED34FFFDEC34FFCC
:0C023200FC90001C1200F580B8C2CA222B
:10023E0090000C1200F575C40743C408E4FFFEFDE0
:10024E00FC90000CE0F8A3E0F9A3E0FAA3E0FBC3F6
:10025E001200D1603275C52C75C6CFE5C430E4FBF3
:10026E0053C4EF90000CE0FCA3E0FDA3E0FEA3E07E
:10027E0024FFFFEE34FFFEED34FFFDEC34FFFC9067
:0B028E00000C1200F580B553C4F722ED
:100299009000101200F575C40743C408E4FFFEFD81
:1002A900FC900010E0F8A3E0F9A3E0FAA3E0FBC397
:1002B9001200D1603275C5D875C6FFE5C430E4FBBC
:1002C90053C4EF900010E0FCA3E0FDA3E0FEA3E01F
:1002D90024FFFFEE34FFFEED34FFFDEC34FFFC900C
:0B02E90000101200F580B553C4F7228E
:1003FF0053B1BF53B2BF53B17F53B27F75985043C0
:10040F008920438780438E1053C4DFAB07AA06A908
:10041F0005A8047F407E427D0F7C0012003FEF0451
:09042F00F404F58DD28ED299225D
:100101009000141200F553B1BF53B2BF53B17F53E6
:10011100B27F75985043878053C4F843C420900040
:1001210014E0F8A3E0F9A3E0FAA3E0FB7F407E42EC
:100131007D0F7C0012003FC374FF9FFF74FF9EFE82
:10014100E49DFDE49CFC78081200E28FC690001447
:10015100E0F8A3E0F9A3E0FAA3E0FB7F407E427D53
:100161000F7C0012003FC374FF9FFF8FC543C4087B
:03017100D29922FE
:070466003098FDAF99C29828
:01046D00226C
:08046E00C2998F993099FD221B
:100174009000181200F553B1FB53B2FB53B3BF53B5
:10018400B4BF75F85075C40853C4DF900018E0F884
:10019400A3E0F9A3E0FAA3E0FB7F407E427D0F7C5D
:1001A4000012003FC374FF9FFF74FF9EFEE49DFD99
:1001B400E49CFC78081200E28FC6900018E0F8A3D3
:1001C400E0F9A3E0FAA3E0FB7F407E427D0F7C00D0
:0E01D40012003FC374FF9FFF8FC543C4082273
:0704760030F8FDAF9AC2F857
:01047D00225C
:08047E00C2F98F9A30F9FD224A
:0300000002045A9D
:0C045A00787FE4F6D8FD7581200204389C
:1000030075F008758200EF2FFFEE33FECD33CDCCB4
:1000130033CCC58233C5829BED9AEC99E582984037
:100023000CF582EE9BFEED9AFDEC99FC0FD5F0D614
:10003300E4CEFBE4CDFAE4CCF9A88222B800C1B93E
:100043000059BA002DEC8BF084CFCECDFCE5F0CB7C
:10005300F97818EF2FFFEE33FEED33FDEC33FCEBB5
:1000630033FB10D703994004EB99FB0FD8E5E4F970
:10007300FA227818EF2FFFEE33FEED33FDEC33FC5D
:10008300C933C910D7059BE99A4007EC9BFCE99A51
:10009300F90FD8E0E4C9FAE4CCFB2275F010EF2F96
:1000A300FFEE33FEED33FDCC33CCC833C810D70796
:1000B3009BEC9AE899400AED9BFDEC9AFCE899F8D1
:0E00C3000FD5F0DAE4CDFBE4CCFAE4C8F92264
:1000D100EB9FF5F0EA9E42F0E99D42F0E89C45F085
:0100E10022FC
:1000E200E8600FECC313FCED13FDEE13FEEF13FFFC
:0300F200D8F12220
:0C00F500ECF0A3EDF0A3EEF0A3EFF0227E
:00000001FF
